:100000000C945D000C9485000C9485000C94850084
:100010000C9485000C9485000C9485000C9485004C
:100020000C9485000C9485000C9485000C9485003C
:100030000C9485000C9485000C9485000C9485002C
:100040000C94AB030C9485000C9485000C948500F3
:100050000C9485000C9485000C9485000C9485000C
:100060000C94F5030C9485000000000800020100C8
:100070000003040700000000000000000000000072
:10008000250028002B0000000000240027002A0083
:10009000040404040404040402020202020203032E
:1000A0000303030301020408102040800102040836
:1000B0001020010204081020DD0611241FBECFEF1E
:1000C000D8E0DEBFCDBF11E0A0E0B1E0EEE8F1E1A5
:1000D00002C005900D92A032B107D9F721E0A0E24D
:1000E000B1E001C01D92A43FB207E1F710E0CDE5F9
:1000F000D0E004C02197FE010E94BA08CC35D10798
:10010000C9F70E9423050C94C5080C94000090E0E8
:10011000FC01EC55FF4F2491FC01E057FF4F849107
:10012000882399F090E0880F991FFC01EA57FF4F50
:10013000A591B491FC01E458FF4F859194918FB73C
:10014000F894EC91E22BEC938FBF0895E091D101EC
:10015000F091D201309729F01092CA011092C90192
:1001600009940895CF93DF93AC01E091D301F0910E
:10017000D4013097F1F09091CC018091CB01981788
:10018000C0F090E0292F30E02617370754F4D9014A
:10019000AA5CBE4FEA01C20FD31F88818C939F5F78
:1001A000F1CF1092CC016093CB01CB01DF91CF91C5
:1001B0000994DF91CF910895CF92DF92EF92FF9251
:1001C0000F931F93CF93DF936C017A018B01C0E0F3
:1001D000D0E0CE15DF0589F0D8016D918D01D601F3
:1001E000ED91FC910190F081E02DC6010995892BDC
:1001F00011F47E0102C02196ECCFC701DF91CF91AF
:100200001F910F91FF90EF90DF90CF90089590E0B5
:10021000FC01E859FF4F3491FC01EC55FF4F24914C
:10022000FC01E057FF4FE491EE2309F43BC0332378
:1002300039F1333091F038F43130A9F0323001F532
:1002400084B58F7D12C0373091F03830A1F0343052
:10025000B9F4809180008F7D03C0809180008F77FA
:10026000809380000DC084B58F7784BD09C08091D4
:10027000B0008F7703C08091B0008F7D8093B00075
:10028000F0E0EE0FFF1FE458FF4FA591B4918FB738
:10029000F894EC91611103C020952E2301C02E2B00
:1002A0002C938FBF08958E3008F08E508770806435
:1002B00080937C0080917A00806480937A008091A2
:1002C0007A0086FDFCCF809178002091790090E043
:1002D000922B08953FB7F8948091C2019091C30189
:1002E000A091C401B091C50126B5A89B05C02F3FC0
:1002F00019F00196A11DB11D3FBFBA2FA92F982F4C
:100300008827820F911DA11DB11DBC01CD0143E0C5
:10031000660F771F881F991F4A95D1F70895CF92CE
:10032000DF92EF92FF920E946A016B017C010E94B2
:100330006A01DC01CB018C199D09AE09BF09883E19
:100340009340A105B10598F3FF90EF90DF90CF9017
:10035000089585ED8093BC008091BC0084FDFCCFA6
:100360001092C801089540917601262F30E0240FA5
:10037000311D21323105DCF42091C8012430C9F44B
:10038000FC0180E090E0861758F4309176012191CD
:10039000DC01AA5ABE4FA30FB11D2C930196F3CFD7
:1003A00080917601680F6093760180E0089581E086
:1003B000089582E008950895E091CC018091CB01E9
:1003C000E81730F4F0E0EA5CFE4F808190E0089599
:1003D0008FEF9FEF08959091CC018091CB019817FA
:1003E00050F4E92FF0E0EA5CFE4F208130E09F5F9F
:1003F0009093CC0102C02FEF3FEFC9010895809187
:10040000CB0190E02091CC01821B91090895CF93FC
:10041000DF9300D0CDB7DEB7CB01642F49835A8379
:100420000E94B3014981842F5A81952F0F900F901C
:10043000DF91CF9108950F931F93CF93DF93C2E283
:10044000D1E001EE11E0F801608171818281938138
:100450000E94600779836883F801648175818681D1
:1004600097810E9460077B836A83F80160857185AC
:10047000828593850E9460077D836C8346E050E00F
:10048000BE0185ED91E0DF91CF911F910F910C940A
:100490000702CF93DF931F92CDB7DEB7698361E088
:1004A000CE0101960E94B30181E090E00F90DF91B0
:1004B000CF910895CF92DF92EF92FF928091350114
:1004C000882309F445C020913001309131012F5F1C
:1004D0003F4F309331012093300180912F018111E2
:1004E0000CC02536310508F49CC0109231011092E1
:1004F000300181E080932F0194C0E091350180911B
:100500002E01F0E0E050FF4F408150E0082E02C085
:10051000559547950A94E2F740FD03C048EC50E03A
:1005200002C048E552E04217530708F067C0109236
:100530003101109230018F5F80932E0110922F01B4
:10054000843009F06EC010922E011092350169C0FE
:1005500080913401882309F464C0C090E901D090EF
:10056000EA01E090EB01F090EC0120E030E046E998
:1005700053E4C701B6010E94480818167CF420E035
:1005800030E041E654E4C701B6010E945B07881FD2
:100590008827881F91E0892790E025C020E030E07F
:1005A00046E953E46091E1017091E2018091E30139
:1005B0009091E4010E94480818169CF020E030E079
:1005C00046E953E46091E5017091E6018091E7010D
:1005D0009091E8010E94480818161CF080E29EE401
:1005E00002C082E090E02091320130913301821705
:1005F000930789F410923301109232016091ED015A
:1006000081E068276093ED018DE0FF90EF90DF902F
:10061000CF900C9407012F5F3F4F3093330120930D
:100620003201FF90EF90DF90CF900895CF93C0916B
:10063000CB012091CC018C2F90E0821B910984305A
:100640009105E1F5C21749F085ED91E00E94EB01BB
:10065000809320019093210187BD9091CB018091DF
:10066000CC01981749F085ED91E00E94EB01809351
:1006700020019093210188BD9091CB018091CC0104
:10068000981751F085ED91E00E94EB0180932001D5
:10069000909321018093B3009091CB018091CC0184
:1006A000981709F44FC085ED91E00E94EB0180930B
:1006B0002001909321018093B40044C082309105C1
:1006C00039F5C21781F085ED91E00E94EB0190931E
:1006D000210180932001880F991F880F991F909303
:1006E0008900809388008091CC01C81759F185ED6D
:1006F00091E00E94EB019093210180932001880FEB
:10070000991F880F991F90938B0080938A001AC0BD
:10071000019779F485ED91E00E94EB01282F21707B
:10072000209334018E719927959587958093350193
:1007300009C08091CC01C81729F085ED91E00E9495
:10074000EB01F7CF8091F3018F5F8093F301CF919D
:1007500008950E94C0081F920F920FB60F921124A5
:100760002F933F938F939F93AF93BF938091BE013D
:100770009091BF01A091C001B091C1013091BD0124
:1007800026E0230F2D3720F40296A11DB11D05C0D0
:1007900029E8230F0396A11DB11D2093BD0180936D
:1007A000BE019093BF01A093C001B093C10180919D
:1007B000C2019091C301A091C401B091C5010196FD
:1007C000A11DB11D8093C2019093C301A093C401E8
:1007D000B093C501BF91AF919F918F913F912F91A0
:1007E0000F900FBE0F901F9018951F920F920FB68B
:1007F0000F9211242F933F934F935F936F937F93A7
:100800008F939F93AF93BF93EF93FF938091B90022
:10081000887F803609F49CC068F5883209F45BC093
:1008200090F4803109F454C038F4882309F4F6C0F8
:10083000883009F44DC0F6C0883109F44CC08032CC
:1008400009F45DC0EFC0803409F468C048F4803317
:1008500009F455C0883309F0E5C080939901D8C0E8
:10086000803509F44FC0883509F45DC0883409F03B
:10087000D9C0D6C0883909F4C7C0A8F4883709F4AC
:1008800067C038F4883609F463C0803709F460C063
:10089000C9C0883809F4B8C0803909F45FC080380D
:1008A00009F0C0C05BC0803B09F486C038F4803AD0
:1008B00009F466C0883A09F47FC0B4C0803C09F4EA
:1008C000A7C0883C09F4A4C0883B09F48AC0AAC028
:1008D0008091BC0110C09091BB018091BA01981722
:1008E00070F5E091BB0181E08E0F8093BB01F0E0D9
:1008F000E656FE4F80818093BB0085EC86C08093D6
:1009000099018EC0E091BB0181E08E0F8093BB0105
:100910008091BB00F0E0E656FE4F80839091BB01D2
:100920008091BA016EC0E091BB0181E08E0F80938F
:10093000BB018091BB00F0E0E656FE4F80838091C2
:10094000C70181116DC081E08093C60184EA61C056
:1009500083E08093C80110929801CFCF80919801D5
:10096000803208F051C0E091980181E08E0F8093B1
:1009700098018091BB00F0E0E858FE4F8083BDCF26
:1009800085EC8093BC001092C80180919801803260
:1009900030F4E0919801F0E0E858FE4F1082609149
:1009A000980170E0E091CD01F091CE0188E791E0EF
:1009B00009951092980136C084E08093C801109286
:1009C000770110927601E091CF01F091D001099565
:1009D00080917601811105C081E0809376011092AB
:1009E0005601E091770181E08E0F80937701F0E06E
:1009F000EA5AFE4F80818093BB00909177018091ED
:100A00007601981708F479CF85E88093BC000AC076
:100A100085EC8093BC001092C80104C0109299012B
:100A20000E94A901FF91EF91BF91AF919F918F918A
:100A30007F916F915F914F913F912F910F900FBEDA
:100A40000F901F901895789484B5826084BD84B50A
:100A5000816084BD85B5826085BD85B5816085BDB9
:100A600080916E00816080936E0010928100809171
:100A700081008260809381008091810081608093F9
:100A80008100809180008160809380008091B1001E
:100A900084608093B1008091B00081608093B00049
:100AA00080917A00846080937A0080917A008260DD
:100AB00080937A0080917A008E7F80937A00809173
:100AC0007A00806880937A001092C1008DE00E94C5
:100AD000870085E00E94870086E00E94870083E00F
:100AE0000E9487008BE00E94870089E00E948700B7
:100AF0008AE00E94870093EA94BD83E085BD8FE77A
:100B000087BD88BD9093B00024E02093B10080930E
:100B1000B3008093B4009093800082E080938100C2
:100B20008CEF91E0909389008093880090938B00E4
:100B300080938A0082E18093BA0086EA90E09093E5
:100B4000D0018093CF0182EB90E09093CE0180930F
:100B5000CD011092CC011092CB011092CA011092DB
:100B6000C9011092C80181E08093C7011092C601AB
:100B700061E082E10E94070161E083E10E940701D8
:100B80008091B9008E7F8093B9008091B9008D7FEC
:100B90008093B90080E28093B80085E48093BC0024
:100BA0008BE192E09093D2018093D10186E193E0B2
:100BB0009093D4018093D30180E00E945301BC0143
:100BC000990F880B990B0E9498076093E10170932D
:100BD000E2018093E3019093E40181E00E945301DC
:100BE000BC01990F880B990B0E9498076093E5014F
:100BF0007093E6018093E7019093E80182E00E9400
:100C00005301BC01990F880B990B0E9498076093C0
:100C1000E9017093EA018093EB019093EC01CFE737
:100C2000D1E000E010E09091F3018091F20198177B
:100C300049F08091F3018093F2011092F10110923A
:100C4000F0012DC08091F0019091F10101969093F7
:100C5000F1018093F0018D32914008F1C7BDC8BD0C
:100C6000C093B300C093B4008091EF0191E0980F5E
:100C70009093EF01853138F08091EE018D278093BC
:100C8000EE011092EF018091EE01882341F0609116
:100C9000ED016D276093ED018DE00E94070180E07A
:100CA0000E945301C090E101D090E201E090E30185
:100CB000F090E401BC01990F880B990B0E949807F2
:100CC000A70196010E94EE062FE832EC45EF5CE3A7
:100CD0000E944D089B01AC01C701B6010E94EF06BE
:100CE0006093E1017093E2018093E3019093E4014A
:100CF0000E945A020E948F0181E00E945301C0901D
:100D0000E501D090E601E090E701F090E801BC0138
:100D1000990F880B990B0E949807A70196010E94D2
:100D2000EE062FE832EC45EF5CE30E944D089B0194
:100D3000AC01C701B6010E94EF066093E501709314
:100D4000E6018093E7019093E8010E945A020E9415
:100D50008F0182E00E945301C090E901D090EA0126
:100D6000E090EB01F090EC01BC01990F880B990B1E
:100D70000E949807A70196010E94EE062FE832EC28
:100D800045EF5CE30E944D089B01AC01C701B60131
:100D90000E94EF066093E9017093EA018093EB01F2
:100DA0009093EC010E945A020E948F0101151105D7
:100DB00009F439CF0E94000036CFE5EDF1E013824F
:100DC000128288EE93E0A0E0B0E084839583A6834E
:100DD000B78384E191E09183808308955058BB27C5
:100DE000AA270E9406070C940E080E94000838F0FB
:100DF0000E94070820F039F49F3F19F426F40C9460
:100E0000FD070EF4E095E7FB0C94F707E92F0E942D
:100E10001F0858F3BA17620773078407950720F075
:100E200079F4A6F50C9441080EF4E0950B2EBA2F38
:100E3000A02D0B01B90190010C01CA01A0011124E0
:100E4000FF27591B99F0593F50F4503E68F11A168C
:100E5000F040A22F232F342F4427585FF3CF46951D
:100E600037952795A795F0405395C9F77EF41F163F
:100E7000BA0B620B730B840BBAF09150A1F0FF0F09
:100E8000BB1F661F771F881FC2F70EC0BA0F621FF5
:100E9000731F841F48F4879577956795B795F795E5
:100EA0009E3F08F0B0CF9395880F08F09927EE0F7A
:100EB0009795879508950E94D30708F481E00895D7
:100EC0000E9467076894B1110C94420808950E942B
:100ED000270888F09F5798F0B92F9927B751B0F09D
:100EE000E1F0660F771F881F991F1AF0BA95C9F7AE
:100EF00014C0B13091F00E944108B1E008950C9403
:100F00004108672F782F8827B85F39F0B93FCCF3B5
:100F1000869577956795B395D9F73EF4909580952A
:100F2000709561957F4F8F4F9F4F0895E89409C04A
:100F300097FB3EF490958095709561957F4F8F4F0C
:100F40009F4F9923A9F0F92F96E9BB279395F69522
:100F5000879577956795B795F111F8CFFAF4BB0FA0
:100F600011F460FF1BC06F5F7F4F8F4F9F4F16C004
:100F7000882311F096E911C0772321F09EE8872F8E
:100F8000762F05C0662371F096E8862F70E060E04A
:100F90002AF09A95660F771F881FDAF7880F9695C3
:100FA000879597F90895990F0008550FAA0BE0E867
:100FB000FEEF16161706E807F907C0F0121613061B
:100FC000E407F50798F0621B730B840B950B39F45B
:100FD0000A2661F0232B242B252B21F408950A26C1
:100FE00009F4A140A6958FEF811D811D089597F901
:100FF0009F6780E870E060E008959FEF80EC0895BF
:1010000000240A94161617061806090608950024E7
:101010000A9412161306140605060895092E039461
:10102000000C11F4882352F0BB0F40F4BF2B11F4D5
:1010300060FF04C06F5F7F4F8F4F9F4F089557FD34
:101040009058440F551F59F05F3F71F04795880F36
:1010500097FB991F61F09F3F79F0879508951216CD
:1010600013061406551FF2CF4695F1DF08C0161679
:1010700017061806991FF1CF86957105610508942A
:101080000895E894BB2766277727CB0197F9089541
:101090000E94D30708F48FEF08950E9460080C9413
:1010A0000E080E94000838F00E94070820F09523DF
:1010B00011F00C94F7070C94FD0711240C944208CE
:1010C0000E941F0870F3959FC1F3950F50E0551FC4
:1010D000629FF001729FBB27F00DB11D639FAA278D
:1010E000F00DB11DAA1F649F6627B00DA11D661FDC
:1010F000829F2227B00DA11D621F739FB00DA11DFD
:10110000621F839FA00D611D221F749F3327A00DB6
:10111000611D231F849F600D211D822F762F6A2F52
:1011200011249F5750409AF0F1F088234AF0EE0FB7
:10113000FF1FBB1F661F771F881F91505040A9F7E4
:101140009E3F510580F00C94F7070C9442085F3FD6
:10115000E4F3983ED4F3869577956795B795F79520
:10116000E7959F5FC1F7FE2B880F911D9695879598
:1011700097F90895EE0FFF1F0590F491E02D099463
:0E11800081E090E0F8940C94C508F894FFCF3D
:10118E000008090A0B0C0D0E0F01020304050607D9
:10119E000000000049020702FF01EB01DC01DB0148
:107800000C94343C0C94513C0C94513C0C94513CE1
:107810000C94513C0C94513C0C94513C0C94513CB4
:107820000C94513C0C94513C0C94513C0C94513CA4
:107830000C94513C0C94513C0C94513C0C94513C94
:107840000C94513C0C94513C0C94513C0C94513C84
:107850000C94513C0C94513C0C94513C0C94513C74
:107860000C94513C0C94513C11241FBECFEFD8E036
:10787000DEBFCDBF11E0A0E0B1E0EAE8FFE702C063
:1078800005900D92A230B107D9F712E0A2E0B1E065
:1078900001C01D92AD30B107E1F70E942D3D0C945F
:1078A000C33F0C94003C982F95959595959595958B
:1078B000905D8F708A307CF0282F295A8091C0000B
:1078C00085FFFCCF9093C6008091C00085FFFCCF60
:1078D0002093C6000895282F205DF0CF982F809127
:1078E000C00085FFFCCF9093C6000895EF92FF92F1
:1078F0000F931F93EE24FF2487018091C00087FD22
:1079000017C00894E11CF11C011D111D81E2E8164D
:1079100081EAF80687E0080780E0180770F3E09135
:107920000401F091050109958091C00087FFE9CF1E
:107930008091C6001F910F91FF90EF9008950E94D3
:10794000763C982F8091C00085FFFCCF9093C600B5
:1079500091362CF490330CF09053892F089597555D
:10796000892F08951F930E949F3C182F0E949F3CCF
:107970001295107F810F1F9108951F93182F882350
:1079800021F00E94763C1150E1F71F9108951F935A
:10799000182F0E94763C803249F0809103018F5F5E
:1079A000809303018530C1F01F9108958091C0003C
:1079B00085FFFCCF84E18093C6008091C00085FFE5
:1079C000FCCF1093C6008091C00085FFFCCF80E102
:1079D0008093C6001F910895E0910401F091050184
:1079E00009951F9108950E94763C803241F0809164
:1079F00003018F5F80930301853081F008958091AA
:107A0000C00085FFFCCF84E18093C6008091C00058
:107A100085FFFCCF80E18093C6000895E0910401CA
:107A2000F09105010995089548EC50E08823A1F0F4
:107A30002D9A28EE33E0FA013197F1F721503040CA
:107A4000D1F72D9828EE33E0FA013197F1F7215064
:107A50003040D1F7815061F708953F924F925F9285
:107A60006F927F928F929F92AF92BF92CF92DF924E
:107A7000EF92FF920F931F93CF93DF93000082E06A
:107A80008093C00080E18093C4001092C50088E11B
:107A90008093C10086E08093C2005098589A259A3E
:107AA00081E00E94143D24E1F22E9EE1E92E85E959
:107AB000D82E0FE0C02E10E1B12EAA24A394B1E479
:107AC0009B2EA6E58A2EF2E57F2EE0E26E2E79E46B
:107AD000572E63E5462E50E5352E0E94763C8033C6
:107AE000B1F18133B9F1803409F46FC0813409F404
:107AF00076C0823409F485C0853409F488C08035A5
:107B000031F1823521F1813511F1853509F485C0D6
:107B1000863509F48DC0843609F496C0843709F49B
:107B200003C1853709F472C1863709F466C08091B4
:107B300003018F5F80930301853079F6E0910401A2
:107B4000F091050109950E94763C803351F60E9420
:107B5000F33CC3CF0E94763C803249F78091C0004D
:107B600085FFFCCFF092C6008091C00085FFFCCF5E
:107B70009092C6008091C00085FFFCCF8092C60025
:107B80008091C00085FFFCCF7092C6008091C0003C
:107B900085FFFCCF6092C6008091C00085FFFCCFBE
:107BA0005092C6008091C00085FFFCCF4092C60075
:107BB0008091C00085FFFCCF3092C6008091C0004C
:107BC00085FFFCCFB092C60088CF0E94763C8638F5
:107BD00008F4BDCF0E94763C0E94F33C7ECF0E9409
:107BE000763C803809F49CC0813809F40BC1823896
:107BF00009F430C1883909F48FC080E00E94C73C85
:107C00006CCF84E10E94BD3C0E94F33C66CF85E0CE
:107C10000E94BD3C0E94F33C60CF0E94763C809362
:107C200006010E94763C809307010E94F33C55CFE9
:107C30000E94763C803309F411C183E00E94BD3C70
:107C400080E00E94C73C49CF0E94763C80930902A5
:107C50000E94763C8093080280910C028E7F809374
:107C60000C020E94763C853409F409C18091080217
:107C700090910902892B89F000E010E00E94763C87
:107C8000F801E85FFE4F80830F5F1F4F809108026D
:107C9000909109020817190788F30E94763C8032F8
:107CA00009F045CF80910C0280FFF5C0609106017C
:107CB00070910701660F771F7093070160930601AB
:107CC000A0910802B09109021097C9F0E8E0F1E034
:107CD0009B01AD014E0F5F1FF999FECF32BD21BD53
:107CE000819180BDFA9AF99A2F5F3F4FE417F5070B
:107CF00099F76A0F7B1F70930701609306018091CB
:107D0000C00085FFFCCFF092C6008091C00085FFC7
:107D1000FCCFB092C600E1CE83E00E94C73CDDCE2E
:107D200082E00E94C73CD9CE0E94763C8093090233
:107D30000E94763C80930802809106019091070191
:107D4000880F991F90930701809306010E94763C4B
:107D5000853409F49AC080910C028E7F80930C02C6
:107D60000E94763C803209F0B8CE8091C00085FF39
:107D7000FCCFF092C600A0910802B09109021097C2
:107D8000C1F180910C02082F0170182F1695117007
:107D9000E0910601F0910701AF014F5F5F4FBA011B
:107DA00020E030E00023B1F4112339F49491809164
:107DB000C00085FFFCCF9093C6002F5F3F4FCB01E3
:107DC0000196FA012A173B0780F4BC014F5F5F4F11
:107DD000002351F3F999FECFF2BDE1BDF89A90B5B9
:107DE0008091C00085FFFCCFE6CF709307016093C0
:107DF00006018091C00085FDE5CE8091C00085FF21
:107E0000F8CFE0CE81E00E94C73C67CE0E94763C6E
:107E1000803209F08CCE8091C00085FFFCCFF092BB
:107E2000C6008091C00085FFFCCFE092C600809123
:107E3000C00085FFFCCFD092C6008091C00085FFB6
:107E4000FCCFC092C6008091C00085FFFCCFB092ED
:107E5000C60043CE80E10E94C73C3FCE0E94763CE4
:107E60000E94763C182F0E94763C112309F483C0AF
:107E7000113009F484C08FE00E94C73C2ECE80915F
:107E80000C02816080930C02F1CE80910C02816023
:107E900080930C0265CF809107018823880F880B9F
:107EA0008A2180930B028091060190910701880F2F
:107EB000991F90930701809306018091080280FF2B
:107EC00009C08091080290910902019690930902DD
:107ED00080930802F894F999FECF1127E0910601EA
:107EE000F0910701C8E0D1E0809108029091090269
:107EF000103091F40091570001700130D9F303E084
:107F000000935700E8950091570001700130D9F3B4
:107F100001E100935700E8950990199000915700EE
:107F200001700130D9F301E000935700E8951395F3
:107F3000103498F011270091570001700130D9F3E7
:107F400005E000935700E89500915700017001305B
:107F5000D9F301E100935700E8953296029709F0B2
:107F6000C7CF103011F00296E5CF11248091C000E8
:107F700085FFC5CEC8CE8EE10E94C73CAECD85E957
:0A7F80000E94C73CAACDF894FFCF81
:027F8A00800075
:040000030000780081
:00000001FF