:100000000C945D000C9485000C9485000C94850084
:100010000C9485000C9485000C9485000C9485004C
:100020000C9485000C9485000C9485000C9485003C
:100030000C9485000C9485000C9485000C9485002C
:100040000C94D1020C9485000C9485000C948500CE
:100050000C9485000C9485000C9485000C9485000C
:100060000C941B030C948500000000002400270062
:100070002A0000000000250028002B0004040404CE
:100080000404040402020202020203030303030342
:10009000010204081020408001020408102001021F
:1000A00004081020000000080002010000030407FB
:1000B0000000000000000000B90511241FBECFEFB2
:1000C000D8E0DEBFCDBF11E0A0E0B1E0EAEEFEE097
:1000D00002C005900D92A031B107D9F721E0A0E14F
:1000E000B1E001C01D92A53DB207E1F710E0CDE5FA
:1000F000D0E004C02197FE010E94CA05CC35D1078B
:10010000C9F70E9449040C9473070C94000090E016
:10011000FC01EC55FF4F2491FC01E057FF4F349157
:10012000FC01E458FF4FE491EE23B1F1222339F1B1
:10013000233091F038F42130A9F0223001F584B554
:100140008F7D12C0273091F02830A1F02430B9F40F
:10015000809180008F7D03C0809180008F77809395
:1001600080000DC084B58F7784BD09C08091B00038
:100170008F7703C08091B0008F7D8093B000F0E056
:10018000EE0FFF1FEE58FF4FA591B4918FB7F89473
:10019000EC913E2B3C938FBF089590E0FC01E0571B
:1001A000FF4F2491FC01E458FF4F8491882399F07C
:1001B00090E0880F991FFC01E859FF4FA591B49179
:1001C000FC01EE58FF4F859194918FB7F894EC9114
:1001D000E22BEC938FBF0895CF92DF92EF92FF92C4
:1001E0000F931F93CF93DF936C017A018B01C0E0D3
:1001F000D0E0CE15DF0589F0D8016D918D01D601D3
:10020000ED91FC910190F081E02DC6010995892BBB
:1002100011F47E0102C02196ECCFC701DF91CF918E
:100220001F910F91FF90EF90DF90CF900895E09194
:10023000B901F091BA01309729F01092B2011092F1
:10024000B10109940895CF93DF93AC01E091BB0114
:10025000F091BC013097F1F09091B4018091B3011D
:100260009817C0F090E0292F30E02617370754F494
:10027000D901A25EBE4FEA01C20FD31F88818C93C1
:100280009F5FF1CF1092B4016093B301CB01DF9176
:10029000CF910994DF91CF9108958E3008F08E5060
:1002A0008770806480937C0080917A008064809362
:1002B0007A0080917A0086FDFCCF809178002091B1
:1002C000790090E0922B08953FB7F8948091AA01AD
:1002D0009091AB01A091AC01B091AD0126B5A89B66
:1002E00005C02F3F19F00196A11DB11D3FBFBA2FC8
:1002F000A92F982F8827820F911DA11DB11DBC0128
:10030000CD0143E0660F771F881F991F4A95D1F7EB
:100310000895CF92DF92EF92FF920E9464016B01E9
:100320007C010E946401DC01CB018C199D09AE099E
:10033000BF09883E9340A105B10598F3FF90EF9067
:10034000DF90CF90089585ED8093BC008091BC0034
:1003500084FDFCCF1092B001089540915E01262FDC
:1003600030E0240F311D21323105DCF42091B00141
:100370002430C9F4FC0180E090E0861758F43091F5
:100380005E012191DC01A25CBE4FA30FB11D2C9335
:100390000196F3CF80915E01680F60935E0180E06B
:1003A000089581E0089582E008950895E091B401F0
:1003B0008091B301E81730F4F0E0E25EFE4F8081F7
:1003C00090E008958FEF9FEF08959091B401809190
:1003D000B301981750F4E92FF0E0E25EFE4F208160
:1003E00030E09F5F9093B40102C02FEF3FEFC9014F
:1003F00008958091B30190E02091B401821B91098E
:100400000895CF93DF9300D0CDB7DEB7CB01642F33
:1004100049835A830E94AD014981842F5A81952FC7
:100420000F900F90DF91CF9108950F931F93CF936B
:10043000DF93C2E1D1E009EC11E0F8016081718144
:10044000828193810E943D0679836883F8016481EB
:100450007581868197810E943D067B836A83F801BE
:1004600060857185828593850E943D067D836C83BE
:1004700046E050E0BE018DEB91E0DF91CF911F91FE
:100480000F910C940102CF93DF931F92CDB7DEB78B
:10049000698361E0CE0101960E94AD0181E090E0A8
:1004A0000F90DF91CF910895CF93C091B301209128
:1004B000B4018C2F90E0821B910984309105D9F50D
:1004C000C21749F08DEB91E00E94E5018093100185
:1004D0009093110187BD9091B3018091B401981759
:1004E00049F08DEB91E00E94E5018093100190931B
:1004F000110188BD9091B3018091B401981751F01A
:100500008DEB91E00E94E501809310019093110121
:100510008093B3009091B3018091B4019817E9F1F1
:100520008DEB91E00E94E501809310019093110101
:100530008093B30032C0029739F5C21781F08DEB7A
:1005400091E00E94E5019093110180931001880FC2
:10055000991F880F991F909389008093880080913C
:10056000B401C817D1F08DEB91E00E94E5019093A2
:10057000110180931001880F991F880F991F909384
:100580008B0080938A0009C08091B401C81729F0BC
:100590008DEB91E00E94E501F7CFCF9108950E9485
:1005A0006E071F920F920FB60F9211242F933F9355
:1005B0008F939F93AF93BF938091A6019091A701D2
:1005C000A091A801B091A9013091A50126E0230FC7
:1005D0002D3720F40296A11DB11D05C029E8230F77
:1005E0000396A11DB11D2093A5018093A6019093B0
:1005F000A701A093A801B093A9018091AA019091AD
:10060000AB01A091AC01B091AD010196A11DB11D4E
:100610008093AA019093AB01A093AC01B093AD017C
:10062000BF91AF919F918F913F912F910F900FBEEE
:100630000F901F9018951F920F920FB60F921124D2
:100640002F933F934F935F936F937F938F939F93DA
:10065000AF93BF93EF93FF938091B900887F80366B
:1006600009F49CC068F5883209F45BC090F48031CD
:1006700009F454C038F4882309F4F6C0883009F42A
:100680004DC0F6C0883109F44CC0803209F45DC019
:10069000EFC0803409F468C048F4803309F455C0D1
:1006A000883309F0E5C080938101D8C0803509F412
:1006B0004FC0883509F45DC0883409F0D9C0D6C070
:1006C000883909F4C7C0A8F4883709F467C038F43A
:1006D000883609F463C0803709F460C0C9C088381F
:1006E00009F4B8C0803909F45FC0803809F0C0C08F
:1006F0005BC0803B09F486C038F4803A09F466C0D8
:10070000883A09F47FC0B4C0803C09F4A7C0883C93
:1007100009F4A4C0883B09F48AC0AAC08091A4014E
:1007200010C09091A3018091A201981770F5E091FB
:10073000A30181E08E0F8093A301F0E0EE57FE4FFE
:1007400080818093BB0085EC86C0809381018EC040
:10075000E091A30181E08E0F8093A3018091BB0003
:10076000F0E0EE57FE4F80839091A3018091A201AB
:100770006EC0E091A30181E08E0F8093A301809170
:10078000BB00F0E0EE57FE4F80838091AF018111F6
:100790006DC081E08093AE0184EA61C083E0809304
:1007A000B00110928001CFCF80918001803208F09B
:1007B00051C0E091800181E08E0F80938001809193
:1007C000BB00F0E0E05AFE4F8083BDCF85EC809304
:1007D000BC001092B00180918001803230F4E09131
:1007E0008001F0E0E05AFE4F10826091800170E0DD
:1007F000E091B501F091B60180E691E00995109283
:10080000800136C084E08093B00110925F011092A5
:100810005E01E091B701F091B801099580915E0108
:10082000811105C081E080935E0110923E01E0914C
:100830005F0181E08E0F80935F01F0E0E25CFE4F8C
:1008400080818093BB0090915F0180915E01981739
:1008500008F479CF85E88093BC000AC085EC8093CA
:10086000BC001092B00104C0109281010E94A3014B
:10087000FF91EF91BF91AF919F918F917F916F9178
:100880005F914F913F912F910F900FBE0F901F904E
:100890001895789484B5826084BD84B5816084BDE8
:1008A00085B5826085BD85B5816085BD80916E000E
:1008B000816080936E00109281008091810082603F
:1008C000809381008091810081608093810080917C
:1008D00080008160809380008091B100846080936B
:1008E000B1008091B00081608093B00080917A0067
:1008F000846080937A0080917A00826080937A008D
:1009000080917A008E7F80937A0080917A0080684F
:1009100080937A001092C10085E00E94CD0086E0AD
:100920000E94CD0083E00E94CD008BE00E94CD00AC
:1009300089E00E94CD008AE00E94CD0093EA94BD38
:1009400083E085BD8EEF87BD88BD9093B00024E025
:100950002093B1008093B3008093B4009093800003
:1009600082E0809381008CEF91E0909389008093E6
:10097000880090938B0080938A0082E18093BA0074
:1009800087E191E09093B8018093B70183E291E011
:100990009093B6018093B5011092B4011092B30107
:1009A0001092B2011092B1011092B00181E08093D7
:1009B000AF011092AE0182E10E94870083E10E94A4
:1009C00087008091B9008E7F8093B9008091B90033
:1009D0008D7F8093B90080E28093B80085E4809396
:1009E000BC0085E192E09093BA018093B90184E55F
:1009F00092E09093BC018093BB0180E00E944D0186
:100A0000BC01990F880B990B0E9475066093C90170
:100A10007093CA018093CB019093CC0181E00E9436
:100A20004D01BC01990F880B990B0E9475066093CC
:100A3000CD017093CE018093CF019093D00182E0DD
:100A40000E944D01BC01990F880B990B0E947506FD
:100A50006093D1017093D2018093D3019093D4011C
:100A6000C0E0D0E080E00E944D01C090C901D0906C
:100A7000CA01E090CB01F090CC01BC01990F880B2A
:100A8000990B0E947506A70196010E94D0052FE8D8
:100A900032EC45EF5CE30E9401079B01AC01C7010A
:100AA000B6010E94D1056093C9017093CA01809379
:100AB000CB019093CC010E94890181E00E944D01FD
:100AC000C090CD01D090CE01E090CF01F090D00148
:100AD000BC01990F880B990B0E947506A70196011E
:100AE0000E94D0052FE832EC45EF5CE30E9401073D
:100AF0009B01AC01C701B6010E94D1056093CD01F5
:100B00007093CE018093CF019093D0010E94890110
:100B100082E00E944D01C090D101D090D201E090BE
:100B2000D301F090D401BC01990F880B990B0E945E
:100B30007506A70196010E94D0052FE832EC45EF1B
:100B40005CE30E9401079B01AC01C701B6010E9452
:100B5000D1056093D1017093D2018093D30190931A
:100B6000D4010E948901209709F47CCF0E940000E3
:100B700079CFEDEBF1E01382128288EE93E0A0E0F2
:100B8000B0E084839583A683B78384E091E091836A
:100B900080830895EE0FFF1F0590F491E02D0994D6
:100BA0005058BB27AA270E94E8050C94C7060E944C
:100BB000B90638F00E94C00620F039F49F3F19F4BE
:100BC00026F40C94B6060EF4E095E7FB0C94B00600
:100BD000E92F0E94D80658F3BA17620773078407F3
:100BE000950720F079F4A6F50C94FA060EF4E0953A
:100BF0000B2EBA2FA02D0B01B90190010C01CA01D7
:100C0000A0011124FF27591B99F0593F50F4503E81
:100C100068F11A16F040A22F232F342F4427585F73
:100C2000F3CF469537952795A795F0405395C9F78B
:100C30007EF41F16BA0B620B730B840BBAF0915043
:100C4000A1F0FF0FBB1F661F771F881FC2F70EC0E2
:100C5000BA0F621F731F841F48F4879577956795B5
:100C6000B795F7959E3F08F0B0CF9395880F08F0A1
:100C70009927EE0F9795879508950E9444066894EA
:100C8000B1110C94FB0608950E94E00688F09F576E
:100C900098F0B92F9927B751B0F0E1F0660F771FA0
:100CA000881F991F1AF0BA95C9F714C0B13091F096
:100CB0000E94FA06B1E008950C94FA06672F782F87
:100CC0008827B85F39F0B93FCCF38695779567955B
:100CD000B395D9F73EF490958095709561957F4FC7
:100CE0008F4F9F4F0895E89409C097FB3EF490956D
:100CF0008095709561957F4F8F4F9F4F9923A9F0F5
:100D0000F92F96E9BB279395F69587957795679583
:100D1000B795F111F8CFFAF4BB0F11F460FF1BC0C7
:100D20006F5F7F4F8F4F9F4F16C0882311F096E95A
:100D300011C0772321F09EE8872F762F05C0662308
:100D400071F096E8862F70E060E02AF09A95660FC1
:100D5000771F881FDAF7880F9695879597F908957A
:100D600097F99F6780E870E060E008959FEF80EC5E
:100D7000089500240A941616170618060906089501
:100D800000240A9412161306140605060895092E67
:100D90000394000C11F4882352F0BB0F40F4BF2BD6
:100DA00011F460FF04C06F5F7F4F8F4F9F4F089516
:100DB00057FD9058440F551F59F05F3F71F047950C
:100DC000880F97FB991F61F09F3F79F087950895F1
:100DD000121613061406551FF2CF4695F1DF08C010
:100DE000161617061806991FF1CF8695710561052D
:100DF00008940895E894BB2766277727CB0197F9D5
:100E000008950E9414070C94C7060E94B90638F092
:100E10000E94C00620F0952311F00C94B0060C94AB
:100E2000B60611240C94FB060E94D80670F3959F19
:100E3000C1F3950F50E0551F629FF001729FBB27D1
:100E4000F00DB11D639FAA27F00DB11DAA1F649F6D
:100E50006627B00DA11D661F829F2227B00DA11D20
:100E6000621F739FB00DA11D621F839FA00D611DA6
:100E7000221F749F3327A00D611D231F849F600DC7
:100E8000211D822F762F6A2F11249F5750409AF0F0
:100E9000F1F088234AF0EE0FFF1FBB1F661F771F7C
:100EA000881F91505040A9F79E3F510580F00C9447
:100EB000B0060C94FB065F3FE4F3983ED4F38695AE
:100EC00077956795B795F795E7959F5FC1F7FE2BE7
:100ED000880F911D9695879597F9089581E090E088
:0A0EE000F8940C947307F894FFCF08
:100EEA000000000043020102F901E501D601D50123
:107800000C94343C0C94513C0C94513C0C94513CE1
:107810000C94513C0C94513C0C94513C0C94513CB4
:107820000C94513C0C94513C0C94513C0C94513CA4
:107830000C94513C0C94513C0C94513C0C94513C94
:107840000C94513C0C94513C0C94513C0C94513C84
:107850000C94513C0C94513C0C94513C0C94513C74
:107860000C94513C0C94513C11241FBECFEFD8E036
:10787000DEBFCDBF11E0A0E0B1E0EAE8FFE702C063
:1078800005900D92A230B107D9F712E0A2E0B1E065
:1078900001C01D92AD30B107E1F70E942D3D0C945F
:1078A000C33F0C94003C982F95959595959595958B
:1078B000905D8F708A307CF0282F295A8091C0000B
:1078C00085FFFCCF9093C6008091C00085FFFCCF60
:1078D0002093C6000895282F205DF0CF982F809127
:1078E000C00085FFFCCF9093C6000895EF92FF92F1
:1078F0000F931F93EE24FF2487018091C00087FD22
:1079000017C00894E11CF11C011D111D81E2E8164D
:1079100081EAF80687E0080780E0180770F3E09135
:107920000401F091050109958091C00087FFE9CF1E
:107930008091C6001F910F91FF90EF9008950E94D3
:10794000763C982F8091C00085FFFCCF9093C600B5
:1079500091362CF490330CF09053892F089597555D
:10796000892F08951F930E949F3C182F0E949F3CCF
:107970001295107F810F1F9108951F93182F882350
:1079800021F00E94763C1150E1F71F9108951F935A
:10799000182F0E94763C803249F0809103018F5F5E
:1079A000809303018530C1F01F9108958091C0003C
:1079B00085FFFCCF84E18093C6008091C00085FFE5
:1079C000FCCF1093C6008091C00085FFFCCF80E102
:1079D0008093C6001F910895E0910401F091050184
:1079E00009951F9108950E94763C803241F0809164
:1079F00003018F5F80930301853081F008958091AA
:107A0000C00085FFFCCF84E18093C6008091C00058
:107A100085FFFCCF80E18093C6000895E0910401CA
:107A2000F09105010995089548EC50E08823A1F0F4
:107A30002D9A28EE33E0FA013197F1F721503040CA
:107A4000D1F72D9828EE33E0FA013197F1F7215064
:107A50003040D1F7815061F708953F924F925F9285
:107A60006F927F928F929F92AF92BF92CF92DF924E
:107A7000EF92FF920F931F93CF93DF93000082E06A
:107A80008093C00080E18093C4001092C50088E11B
:107A90008093C10086E08093C2005098589A259A3E
:107AA00081E00E94143D24E1F22E9EE1E92E85E959
:107AB000D82E0FE0C02E10E1B12EAA24A394B1E479
:107AC0009B2EA6E58A2EF2E57F2EE0E26E2E79E46B
:107AD000572E63E5462E50E5352E0E94763C8033C6
:107AE000B1F18133B9F1803409F46FC0813409F404
:107AF00076C0823409F485C0853409F488C08035A5
:107B000031F1823521F1813511F1853509F485C0D6
:107B1000863509F48DC0843609F496C0843709F49B
:107B200003C1853709F472C1863709F466C08091B4
:107B300003018F5F80930301853079F6E0910401A2
:107B4000F091050109950E94763C803351F60E9420
:107B5000F33CC3CF0E94763C803249F78091C0004D
:107B600085FFFCCFF092C6008091C00085FFFCCF5E
:107B70009092C6008091C00085FFFCCF8092C60025
:107B80008091C00085FFFCCF7092C6008091C0003C
:107B900085FFFCCF6092C6008091C00085FFFCCFBE
:107BA0005092C6008091C00085FFFCCF4092C60075
:107BB0008091C00085FFFCCF3092C6008091C0004C
:107BC00085FFFCCFB092C60088CF0E94763C8638F5
:107BD00008F4BDCF0E94763C0E94F33C7ECF0E9409
:107BE000763C803809F49CC0813809F40BC1823896
:107BF00009F430C1883909F48FC080E00E94C73C85
:107C00006CCF84E10E94BD3C0E94F33C66CF85E0CE
:107C10000E94BD3C0E94F33C60CF0E94763C809362
:107C200006010E94763C809307010E94F33C55CFE9
:107C30000E94763C803309F411C183E00E94BD3C70
:107C400080E00E94C73C49CF0E94763C80930902A5
:107C50000E94763C8093080280910C028E7F809374
:107C60000C020E94763C853409F409C18091080217
:107C700090910902892B89F000E010E00E94763C87
:107C8000F801E85FFE4F80830F5F1F4F809108026D
:107C9000909109020817190788F30E94763C8032F8
:107CA00009F045CF80910C0280FFF5C0609106017C
:107CB00070910701660F771F7093070160930601AB
:107CC000A0910802B09109021097C9F0E8E0F1E034
:107CD0009B01AD014E0F5F1FF999FECF32BD21BD53
:107CE000819180BDFA9AF99A2F5F3F4FE417F5070B
:107CF00099F76A0F7B1F70930701609306018091CB
:107D0000C00085FFFCCFF092C6008091C00085FFC7
:107D1000FCCFB092C600E1CE83E00E94C73CDDCE2E
:107D200082E00E94C73CD9CE0E94763C8093090233
:107D30000E94763C80930802809106019091070191
:107D4000880F991F90930701809306010E94763C4B
:107D5000853409F49AC080910C028E7F80930C02C6
:107D60000E94763C803209F0B8CE8091C00085FF39
:107D7000FCCFF092C600A0910802B09109021097C2
:107D8000C1F180910C02082F0170182F1695117007
:107D9000E0910601F0910701AF014F5F5F4FBA011B
:107DA00020E030E00023B1F4112339F49491809164
:107DB000C00085FFFCCF9093C6002F5F3F4FCB01E3
:107DC0000196FA012A173B0780F4BC014F5F5F4F11
:107DD000002351F3F999FECFF2BDE1BDF89A90B5B9
:107DE0008091C00085FFFCCFE6CF709307016093C0
:107DF00006018091C00085FDE5CE8091C00085FF21
:107E0000F8CFE0CE81E00E94C73C67CE0E94763C6E
:107E1000803209F08CCE8091C00085FFFCCFF092BB
:107E2000C6008091C00085FFFCCFE092C600809123
:107E3000C00085FFFCCFD092C6008091C00085FFB6
:107E4000FCCFC092C6008091C00085FFFCCFB092ED
:107E5000C60043CE80E10E94C73C3FCE0E94763CE4
:107E60000E94763C182F0E94763C112309F483C0AF
:107E7000113009F484C08FE00E94C73C2ECE80915F
:107E80000C02816080930C02F1CE80910C02816023
:107E900080930C0265CF809107018823880F880B9F
:107EA0008A2180930B028091060190910701880F2F
:107EB000991F90930701809306018091080280FF2B
:107EC00009C08091080290910902019690930902DD
:107ED00080930802F894F999FECF1127E0910601EA
:107EE000F0910701C8E0D1E0809108029091090269
:107EF000103091F40091570001700130D9F303E084
:107F000000935700E8950091570001700130D9F3B4
:107F100001E100935700E8950990199000915700EE
:107F200001700130D9F301E000935700E8951395F3
:107F3000103498F011270091570001700130D9F3E7
:107F400005E000935700E89500915700017001305B
:107F5000D9F301E100935700E8953296029709F0B2
:107F6000C7CF103011F00296E5CF11248091C000E8
:107F700085FFC5CEC8CE8EE10E94C73CAECD85E957
:0A7F80000E94C73CAACDF894FFCF81
:027F8A00800075
:040000030000780081
:00000001FF